:100000000C9425010C94DF220C94B8220C944D0121
:100010000C944D010C944D010C944D010C944D0128
:100020000C944D010C944D010C944D010C94D71B74
:100030000C944D010C944D010C944D010C944D0108
:100040000C946E220C944D010C944D010C944D01B6
:100050000C944D010C944D010C944D010C944D01E8
:100060000C944D010C944D0107634236B79BD8A701
:100070001A39685618AEBAAB558C1D3CB7CC5763CD
:10008000BD6DEDFD753EF6177231BF000000803F7B
:1000900005A84CCDB2D44EB93836A9020C50B9914E
:1000A0008688083CA6AAAA2ABE000000803FAB00B2
:1000B00055007C0084004B00B5001B00E5000017D4
:1000C000E8000047B8000077AB0000ABAB0000557C
:1000D000AB000022DD000E00F2003E00C200710005
:1000E0008F00A1005F00D0002F00F90700007019F9
:1000F00019008B00000070191900800000008B00AF
:100100000000CD000000578B2E0080800000A09ED4
:100110005F00FF0000008B8B0000ED956400D4FFB2
:100120007F00578B2E00FFFF0000FACE87000000F3
:1001300000000000800000000000000080000000BF
:100140008B000000800000008B0000008B0000008E
:100150008B000000FF0000A5FF00FFFFFF0000A5CF
:10016000FF000000FF0000008B00000000000064A2
:100170000000006400002F6B550000640000008048
:100180000000228B2200238E6B0000800000578B22
:100190002E00AACD660032CD320032CD9A0090EE0C
:1001A000900000FC7C00AACD6600228B220000009B
:1001B000FF00002AD5000055AB00007FAB0000AB6C
:1001C000AB0000D5560000FF00002AD5000055AB5B
:1001D0000000AA560000FF000000D5002A00AB0076
:1001E000550081007F005500AB002B00D5000000BA
:1001F0000000240027002A0000000000250028003D
:100200002B00000000002300260029000404040441
:1002100004040404020202020202030303030303B0
:10022000010204081020408001020408102001028D
:100230000408102000000008000201000003040769
:100240000000000000000000D12911241FBECFEFE4
:10025000D8E0DEBFCDBF12E0A0E0B1E0E6E0FDE512
:1002600002C005900D92A833B107D9F727E0A8E3A3
:10027000B2E001C01D92A931B207E1F711E0C5E279
:10028000D1E004C02197FE010E94762EC432D1072E
:10029000C9F70E9408240C94812E0C94000081E080
:1002A00090E090932A0380932903089510922A03E3
:1002B000109229030895809303010895DB010296AB
:1002C00020E030E0FD01E20FF31F4591559165916B
:1002D0007491FC013297608331965083FC01408316
:1002E0002C5F3F4F03962034310561F7089580E07D
:1002F00090E00895FC01858596850895CF93DF935E
:1003000000D000D000D0CDB7DEB7AB011C821D827B
:100310001E82DC01ED91FC910190F081E02D1982AB
:100320001A821B829E012F5F3F4FBE016C5F7F4F81
:10033000099526960FB6F894DEBF0FBECDBFDF91AC
:10034000CF910895FC0155E52081259F020E20E004
:10035000211D4181459F040E40E0411D3281359FA2
:10036000030E30E0311D1124842F820F830F089576
:10037000CF93DF93CDB7DEB7E0970FB6F894DEBF2B
:100380000FBECDBF6EE671E0CE0101960E945E0108
:10039000CE0101960E94FD16E0960FB6F894DEBFDE
:1003A0000FBECDBFDF91CF910895CF93DF93CDB72F
:1003B000DEB7E0970FB6F894DEBF0FBECDBF6EE29A
:1003C00071E0CE0101960E945E01CE0101960E946D
:1003D000FD16E0960FB6F894DEBF0FBECDBFDF91DD
:1003E000CF910895CF93DF93CDB7DEB7E0970FB6E7
:1003F000F894DEBF0FBECDBF6EEE70E0CE01019669
:100400000E945E01CE0101960E94FD16E0960FB695
:10041000F894DEBF0FBECDBFDF91CF910895CF938B
:10042000DF93CDB7DEB7E0970FB6F894DEBF0FBE0F
:10043000CDBF6EEA70E0CE0101960E945E01CE0152
:1004400001960E94FD16E0960FB6F894DEBF0FBE2F
:10045000CDBFDF91CF910895CF93DF93CDB7DEB7B6
:10046000E0970FB6F894DEBF0FBECDBF6EEA71E025
:10047000CE0101960E945E01CE0101960E94FD16FA
:10048000E0960FB6F894DEBF0FBECDBFDF91CF91DF
:100490000895CF92DF92EF92FF92CF93DF9300D037
:1004A00000D000D0CDB7DEB7C82E880FDD08EE082B
:1004B000FF082EE4C21AD108E108F108A5E1B0E076
:1004C000A70196010E94702A6C3E2FEF72078207E7
:1004D00092073CF06E3C71408105910524F48C2D0F
:1004E00003C080E001C085E180930401C82ED12CB7
:1004F000F601EE0FFF1FEC0DFD1DE654F94F808154
:100500008C8381818D8382818E83E0910501F0E06F
:10051000CF01880F991FE80FF91FE654F94F80812A
:10052000898381818A8382818B83BE016C5F7F4F47
:10053000CE0101960E94AB1C26960FB6F894DEBF42
:100540000FBECDBFDF91CF91FF90EF90DF90CF90A6
:100550000895CF92DF92EF92FF92CF93DF9300D076
:1005600000D000D0CDB7DEB7C82E880FDD08EE086A
:10057000FF082EE4C21AD108E108F108A5E1B0E0B5
:10058000A70196010E94702A6C3E2FEF7207820726
:1005900092073CF06E3C71408105910524F42C2DAE
:1005A00003C020E001C025E120930501E091040192
:1005B000F0E0CF01880F991FE80FF91FE654F94FBB
:1005C00080818C8381818D8382818E83C22ED12C08
:1005D000F601EE0FFF1FEC0DFD1DE654F94F808173
:1005E000898381818A8382818B83BE016C5F7F4F87
:1005F000CE0101960E94AB1C26960FB6F894DEBF82
:100600000FBECDBFDF91CF91FF90EF90DF90CF90E5
:10061000089510922B0380910601882361F00E94B7
:1006200088180E94DB1F61E084E00E945B21109229
:10063000060160E00AC00E94881860E084E00E9421
:100640005B2181E08093060161E08AE090E00C94F8
:10065000B72310922B0380910601813011F00C9486
:100660000903089510922B038091060181110C94C7
:1006700009030895CF93DF93EC01688170E085E072
:100680000E94C721698170E086E00E94C7216A81CB
:1006900070E083E0DF91CF910C94C721FC0160955D
:1006A0002081222321F0269F212D09F02F5F208316
:1006B0002181222321F0269F212D09F02F5F218304
:1006C0002281222321F0269F212D09F02F5F2283F2
:1006D00011240895CF93DF9320910601222351F036
:1006E00060910D0170E0AC018DED93E0DF91CF9151
:1006F0000C94A123EC018EE00E9426222BEE30E028
:10070000DC010E946F2E20E034E040E050E00E94C7
:10071000512ADA01C9014496A11DB11D682F6095C7
:10072000CE010E944E03DF91CF910C943A034F9279
:100730005F926F927F928F929F92AF92BF92CF9271
:10074000DF92EF92FF920F931F93CF93DF9300D02E
:100750001F92CDB7DEB75C0180910601F0900A01CF
:10076000882309F456C02091090130E0A9E1B0E0E6
:100770000E94A52A2EE1422E512C612C712CA3013E
:1007800092010E94512A35E0932E920E2F2D30E0D7
:10079000AEE6B0E00E94A52AA30192010E94512A70
:1007A000DA01C9014E96A11DB11D4FEF60E490E042
:1007B0000E94D21D782E4FEDE42E43E0F42E812CC2
:1007C000C12CD12C40910D0150E0C416D506BCF5CA
:1007D00040912D03272D241B280D8C2D880F480FA9
:1007E00001E010E0B501CE0101960E940623F70159
:1007F00032978981808331968A8180838B81F7014A
:100800008083FFEFCF1ADF0A890C83E0E80EF11C2A
:10081000D9CF8F2D65E00E943B2E90912D03482F5C
:10082000490F40932D0301E010E02FEFB501CE01F9
:1008300001960E940623CE0101960E946A030F9042
:100840000F900F90DF91CF911F910F91FF90EF903C
:10085000DF90CF90BF90AF909F908F907F906F90E0
:100860005F904F900895CF93DF93CDB7DEB7E097B9
:100870000FB6F894DEBF0FBECDBF6EE671E0CE01BD
:1008800001960E945E01CE0101960E949703E096B8
:100890000FB6F894DEBF0FBECDBFDF91CF910895A4
:1008A000CF93DF93CDB7DEB7E0970FB6F894DEBFF6
:1008B0000FBECDBF6EE271E0CE0101960E945E01D7
:1008C000CE0101960E949703E0960FB6F894DEBF22
:1008D0000FBECDBFDF91CF910895CF93DF93CDB7FA
:1008E000DEB7E0970FB6F894DEBF0FBECDBF6EEE59
:1008F00070E0CE0101960E945E01CE0101960E9439
:100900009703E0960FB6F894DEBF0FBECDBFDF9120
:10091000CF910895CF93DF93CDB7DEB7E0970FB6B1
:10092000F894DEBF0FBECDBF6EEA70E0CE01019637
:100930000E945E01CE0101960E949703E0960FB6D9
:10094000F894DEBF0FBECDBFDF91CF910895CF9356
:10095000DF93CDB7DEB7E0970FB6F894DEBF0FBEDA
:10096000CDBF6EEA71E0CE0101960E945E01CE011C
:1009700001960E949703E0960FB6F894DEBF0FBE73
:10098000CDBFDF91CF910895AF92BF92DF92EF92EA
:10099000FF920F931F93CF93DF9300D01F92CDB799
:1009A000DEB75C0180910601882309F447C080917D
:1009B0000D0167ED90E00E94FC1E40910D01415039
:1009C00060E08FE090E00E94D21D80937003D09091
:1009D0003802ED2CF12C01E010E02FEF40912D03B7
:1009E000B5018D1580F4CE0101960E9406238091F9
:1009F0007003B701681B71096F5F7F4F23E0829F0F
:100A0000C00111240FC0CE0101960E9406236091FF
:100A1000700370E06E197F096F5F7F4F23E0D29EF5
:100A2000C0011124AE014F5F5F4F83529C4F0E9463
:100A3000A123809170038093380217C080910A012E
:100A400065E00E943B2E90912D03482F490F409363
:100A50002D0301E010E02FEFB501CE0101960E94B9
:100A60000623CE0101960E946A030F900F900F900B
:100A7000DF91CF911F910F91FF90EF90DF90BF908A
:100A8000AF900895CF93DF93CDB7DEB7E0970FB661
:100A9000F894DEBF0FBECDBF6EE671E0CE010196C9
:100AA0000E945E01CE0101960E94C404E0960FB63A
:100AB000F894DEBF0FBECDBFDF91CF910895CF93E5
:100AC000DF93CDB7DEB7E0970FB6F894DEBF0FBE69
:100AD000CDBF6EE271E0CE0101960E945E01CE01B3
:100AE00001960E94C404E0960FB6F894DEBF0FBED4
:100AF000CDBFDF91CF910895CF93DF93CDB7DEB710
:100B0000E0970FB6F894DEBF0FBECDBF6EEE70E07B
:100B1000CE0101960E945E01CE0101960E94C4049E
:100B2000E0960FB6F894DEBF0FBECDBFDF91CF9138
:100B30000895CF93DF93CDB7DEB7E0970FB6F89463
:100B4000DEBF0FBECDBF6EEA70E0CE0101960E94FF
:100B50005E01CE0101960E94C404E0960FB6F8949F
:100B6000DEBF0FBECDBFDF91CF910895CF93DF934E
:100B7000CDB7DEB7E0970FB6F894DEBF0FBECDBF9E
:100B80006EEA71E0CE0101960E945E01CE010196EF
:100B90000E94C404E0960FB6F894DEBF0FBECDBF2E
:100BA000DF91CF9108958F929F92AF92BF92CF9293
:100BB000DF92EF92FF920F931F93CF93DF9300D0BA
:100BC0001F92CDB7DEB76C01809106018823E1F159
:100BD00080902E032091090130E0A9E0B0E00E944E
:100BE000A52A2EE130E040E050E00E94512A9924ED
:100BF0009394920E8FEDE82E83E0F82EA12CB12C69
:100C0000E0910D01F0E0AE16BF06ACF500912903AE
:100C100010912A0320910701482DB601CE010196BB
:100C20000E940623F70132978981808331968A8159
:100C300080838B81F7018083890CFFEFAF1ABF0A95
:100C400083E0E80EF11CDCCF80910A0165E00E9490
:100C50003B2E90912D03482F490F40932D0301E027
:100C600010E02FEFB601CE0101960E940623CE01BF
:100C700001960E946A030F900F900F90DF91CF9121
:100C80001F910F91FF90EF90DF90CF90BF90AF90AA
:100C90009F908F900895CF93DF93CDB7DEB7E09705
:100CA0000FB6F894DEBF0FBECDBF809106016EEA8D
:100CB00071E0882389F0CE0101960E945E01CE0189
:100CC00001960E94D3058FEF89838A838B83CE019F
:100CD00001960E94DF1E08C0CE0101960E945E01AF
:100CE000CE0101960E94D305E0960FB6F894DEBFC0
:100CF0000FBECDBFDF91CF910895CF93DF93CDB7D6
:100D0000DEB7E0970FB6F894DEBF0FBECDBF6EE63C
:100D100071E0CE0101960E945E01CE0101960E9413
:100D2000D305E0960FB6F894DEBF0FBECDBFDF91BE
:100D3000CF910895CF93DF93CDB7DEB7E0970FB68D
:100D4000F894DEBF0FBECDBF6EE271E0CE0101961A
:100D50000E945E01CE0101960E94D305E0960FB677
:100D6000F894DEBF0FBECDBFDF91CF910895CF9332
:100D7000DF93CDB7DEB7E0970FB6F894DEBF0FBEB6
:100D8000CDBF6EEE70E0CE0101960E945E01CE01F5
:100D900001960E94D305E0960FB6F894DEBF0FBE11
:100DA000CDBFDF91CF910895CF93DF93CDB7DEB75D
:100DB000E0970FB6F894DEBF0FBECDBF6EEA70E0CD
:100DC000CE0101960E945E01CE0101960E94D305DC
:100DD000E0960FB6F894DEBF0FBECDBFDF91CF9186
:100DE0000895CF93DF93CDB7DEB7E0970FB6F894B1
:100DF000DEBF0FBECDBF6EEA71E0CE0101960E944C
:100E00005E01CE0101960E94D305E0960FB6F894DC
:100E1000DEBF0FBECDBFDF91CF910895CF93DF939B
:100E200000D01F92CDB7DEB719821A821B82CE0185
:100E300001960E946A0381E080932B030F900F902C
:100E40000F90DF91CF910895482F982F46FD9095F0
:100E5000E92FEF739F7046FD9F5FE695E695E69557
:100E6000E670F0E0EF5CFE4F2181299F802D212D5F
:100E7000112482958F702295207F822B3081982FAC
:100E8000930F892F47FD8195805808952F923F92A7
:100E90004F925F926F927F928F929F92AF92BF928A
:100EA000CF92DF92EF92FF920F931F93CF93DF9336
:100EB000CDB7DEB768970FB6F894DEBF0FBECDBFD3
:100EC0007C01BC018DEA93E00E94AD1F0E9462226A
:100ED0006A8B7B8B8C8B9D8B1F8218861986CE012B
:100EE00007960E94A20190910601992309F444C13A
:100EF0002DED33E03F872E87EEEDF3E0FB87EA87A9
:100F00002FED33E03D872C87812C912CB9E42B2EDB
:100F1000BCE23B2E1EE1412E512C612C712CE82F9E
:100F2000F0E0F88FEF8B80910D0190E08816990624
:100F30000CF030C125E038E0229EF001239EF00D38
:100F4000329EF00D1124E859FA4FE29F1001E39F01
:100F5000300CF29F300C112438E9231A3AEF330A8F
:100F6000832D9927998B888B0091090110910A0193
:100F7000D101BB2764E0B695A7956A95E1F7A20D6C
:100F8000AF70A85FB0E02A893B894C895D890E94D7
:100F9000702A6B017C0173E0F694E794D794C794B0
:100FA0007A95D1F7CE0EDF1EE11CF11C812F90E067
:100FB000A0E0B0E0BC01CD01E2E0660F771F881F22
:100FC000991FEA95D1F7A30192010E94512ADA01F3
:100FD000C9010396A11DB11DE8E0F0E0E81BF90B83
:100FE00004C0F694E794D794C794EA95D2F7CE8AD2
:100FF000AD2CBB2428893989A20EB31E8A2D0E94EC
:101000002407A80EB11C85E098E0A89EA001A99E27
:10101000500DB89E500D112448595A4F152F140FDA
:10102000812F8E70A82EB12CB594A794202F30E07C
:10103000A7E0B0E00E94A52AA30192010E94512AD4
:10104000DA01C9010196A11DB11DA816B9060CF05F
:1010500036C09E89963528F42C2D220F2C0D79F15F
:1010600006C02AEA2C0D822F8695280F2095412F45
:10107000E8894E1B00E010E06DEA73E0CE010196B6
:101080000E94062389818C839A819D838B818E8324
:10109000C7FE18C0D12C96012058310944E035957F
:1010A00027954A95E1F7392F321B08F430E03D834C
:1010B000220F382F321B08F430E03E8303C01C821D
:1010C0001D821E82CE0104960E94A201482F50E08C
:1010D0002F89388D421B530B403251054CF48F81C0
:1010E0009885298581110EC091110CC021110AC06B
:1010F0008C81EE85FF8580838D81EA85FB858083E9
:101100008E8119C014161506D4F489839A832B8313
:10111000440F440F440FBE016C5F7F4FCE01019618
:101120000E9472238981EE85FF8580838A81EA850A
:10113000FB8580838B81EC85FD85808309C0EE85EE
:10114000FF858083EA85FB859083EC85FD85208380
:10115000FFEF8F1A9F0A2E853F852D5F3F4F3F87F8
:101160002E878A859B8503969B878A87EC85FD85DC
:101170003396FD87EC87D7CE01E010E02FEF40914A
:101180002D03B701CE0101960E940623CE010196E0
:101190000E946A0368960FB6F894DEBF0FBECDBFFB
:1011A000DF91CF911F910F91FF90EF90DF90CF9043
:1011B000BF90AF909F908F907F906F905F904F9077
:1011C0003F902F900895CF93DF93CDB7DEB7E09790
:1011D0000FB6F894DEBF0FBECDBF6EE671E0CE0154
:1011E00001960E945E01CE0101960E944607E0969C
:1011F0000FB6F894DEBF0FBECDBFDF91CF9108953B
:10120000CF93DF93CDB7DEB7E0970FB6F894DEBF8C
:101210000FBECDBF6EE271E0CE0101960E945E016D
:10122000CE0101960E944607E0960FB6F894DEBF05
:101230000FBECDBFDF91CF910895CF93DF93CDB790
:10124000DEB7E0970FB6F894DEBF0FBECDBF6EEEEF
:1012500070E0CE0101960E945E01CE0101960E94CF
:101260004607E0960FB6F894DEBF0FBECDBFDF9104
:10127000CF910895CF93DF93CDB7DEB7E0970FB648
:10128000F894DEBF0FBECDBF6EEA70E0CE010196CE
:101290000E945E01CE0101960E944607E0960FB6BD
:1012A000F894DEBF0FBECDBFDF91CF910895CF93ED
:1012B000DF93CDB7DEB7E0970FB6F894DEBF0FBE71
:1012C000CDBF6EEA71E0CE0101960E945E01CE01B3
:1012D00001960E944607E0960FB6F894DEBF0FBE57
:1012E000CDBFDF91CF910895BC019C013F7336952E
:1012F0002795369527953695279576FF06C08FEF6B
:1013000097E0AC01421B530B9A01E32FEE0FEE0F57
:10131000F0E0EE5EFE4F4081518182812695FA0118
:10132000829FE00DF11D1124CF0177FF03C091953D
:10133000819591090895409100015091010125E0A6
:1013400038E0429FC001439F900D529F900D1124A1
:10135000875E994C9093010180930001890F089555
:10136000CF93C82F0E949B098C9FC0011124892F05
:10137000CF910895CF92DF92FF920F931F93CF9357
:10138000DF9300D01F92CDB7DEB7F82EC62E809126
:101390000601882309F48DC08EE291E00E94C51FEA
:1013A0003AE0C39E6001112409E312E0E0910D01CF
:1013B0006E2F70E0C801895392408617970784F416
:1013C000C6010E945B2E82E0860F0E94B009D80100
:1013D0002C91382F231B08F420E02D938D01E6CFAC
:1013E000FB01E75CFD4F03E010E03197CF0189532B
:1013F0009240029784F0DF0112974C9111962C9144
:1014000030E0C901840F911D840F911DB8010E9425
:101410005B2E6083EACF0E949B098F1590F487E0D2
:101420000E94B009082F10E08FE50E94B009805695
:10143000F801E75CFD4F2081382F230F08F42FEFD0
:101440002083EFEDF3E009E312E04FEB50E08091F1
:101450000D0190E0980129533240281739070CF00C
:1014600040C0D8013D918D01252F332329F0349FB1
:10147000212D112441112F5F822F880F880F27FD06
:1014800006C026FD06C0282F80E090E005C09FEF33
:1014900002C0982F80E02FEFBF0162507109DB017D
:1014A0002C939F0121503109D9019C93808333965D
:1014B000CECF80910A0165E00E943B2E90912D03D2
:1014C000482F490F40932D0301E010E02FEF6DEA04
:1014D00073E0CE0101960E940623CE0101960E9480
:1014E0006A030F900F900F90DF91CF911F910F9192
:1014F000FF90DF90CF9008956CE38AE50C94BA09D1
:1015000060E588E70C94BA091F93CF93DF9300D06E
:1015100000D000D0CDB7DEB780910601882309F452
:101520003BC080910D0165EF90E00E94FC1E809110
:101530000D010E94B0098093700310912D0380E487
:101540000E94B009810F898388EC8A838FEF8B8397
:10155000BE016C5F7F4FCE0101960E94231FE09178
:101560007003F0E03C81CF01880F991FE80FF91F4D
:10157000E352FC4F2081230F08F42FEF20833D819D
:101580002181230F08F42FEF21833E812281230F35
:1015900008F42FEF228316C010912D0380E20E94E1
:1015A000B009810F898388EC8A838FEF8B83BE011A
:1015B0006C5F7F4FCE0101960E94231FCE010496DF
:1015C0000E946A0326960FB6F894DEBF0FBECDBF09
:1015D000DF91CF911F910895FC013081329F030E5E
:1015E00030E0311D3083FB013081329F030E30E04B
:1015F000311D3083FA013081329F030E30E0311DFE
:101600003083112408956F927F928F929F92AF92B0
:10161000BF92DF92EF92FF920F931F93CF93DF93CE
:1016200000D01F92CDB7DEB77C0160910A01809196
:101630000601882309F46FC0D0903802862F90E00D
:10164000A0E0B0E0BC01CD0122E0660F771F881F4B
:10165000991F2A95D1F72FE130E040E050E00E9439
:10166000512ADA01C9010196A11DB11D2D2D280FA6
:101670002093700380910D01281710F010927003D1
:1016800065EF90E00E94FC1E0DED13E08EED882EBC
:1016900083E0982E9FEDA92E93E0B92E612C712C3A
:1016A00080910D0190E06816790604F50E949B096F
:1016B000853B28F0C8010E94A2018531C0F580EA6F
:1016C0000E94B009885D282F2095A501B401C801AA
:1016D0000E94EC0A2FEF621A720A0D5F1F4F83E01F
:1016E000880E911CE3E0AE0EB11CDACF609170035E
:1016F00070E06D1971096F5F7F4FF3E0DF9EC001ED
:101700001124A70183529C4F0E94A1238091700352
:101710008093380224C0F7018081898381818A8384
:1017200082818B83CE0101960E946A0318C0C80192
:101730000E94A201382F330FF8012081230F08F4F3
:101740002FEF2083F4012081230F08F42FEF208353
:10175000F5012081230F08F42FEF2083B0CF0F90E5
:101760000F900F90DF91CF911F910F91FF90EF900D
:10177000DF90BF90AF909F908F907F906F90089573
:10178000CF93DF9300D01F92CDB7DEB78FEF898361
:101790008A838B83CE0101960E94030B0F900F90DA
:1017A0000F90DF91CF910895CF93DF9300D01F92D8
:1017B000CDB7DEB719821A828FEF8B83CE010196E7
:1017C0000E94030B0F900F900F90DF91CF9108951F
:1017D000CF93DF9300D01F92CDB7DEB78FEF898311
:1017E0001A821B82CE0101960E94030B0F900F906C
:1017F0000F90DF91CF91089580E991E00895579A75
:1018000008954F925F926F927F928F92AF92BF92A4
:10181000CF92EF92FF920F931F93CF93DF933C01F0
:10182000EB010E943D22F30127853089621B730B77
:101830006A307105B0F3F894E881F9815BB15068C2
:101840008BB18F778BB96A859F81262F291B922FA9
:101850002F83BF844A805B807D85FC84EE847F5F1C
:10186000F394E3943E814885A984CB841181D2010D
:1018700020E0C32F022F322F31811127889431119C
:10188000390F08F43FEF9195889470FD130F179569
:10189000889471FD130F1795889472FD130F179597
:1018A000889473FD130F1795889474FD130F179583
:1018B000889475FD130F1795889476FD130F17956F
:1018C000889477FD130F17958894232F7111212F7A
:1018D000960F122F002C5BB900C017FF8BB9308117
:1018E0002227889400C000C0002C8BB931113C0F16
:1018F00000C0002C5BB900C016FF8BB908F43FEFA5
:10190000C195889400C000C0002C8BB9F0FC230F57
:1019100000C0002C5BB900C015FF8BB927958894D7
:10192000F1FC230F00C000C0002C8BB927958894D0
:1019300000C0002C5BB900C014FF8BB9F2FC230F70
:101940002795889400C000C0002C8BB9F3FC230FAE
:1019500000C0002C5BB900C013FF8BB92795889499
:10196000F4FC230F00C000C0002C8BB9279588948D
:1019700000C0002C5BB900C012FF8BB9F5FC230F2F
:101980002795889400C000C0002C8BB9F6FC230F6B
:1019900000C0002C5BB900C011FF8BB9279588945B
:1019A000F7FC230F00C000C0002C8BB9279588944A
:1019B00000C0002C5BB900C010FF8BB9132FF110D1
:1019C000122FCA0D00C000C0002C8BB900C000C08F
:1019D000002C5BB900C017FF8BB932812227889495
:1019E00000C000C0002C8BB93111340F00C0002C96
:1019F0005BB900C016FF8BB908F43FEFEB0DF11D8A
:101A000000C000C0002C8BB9E0FC230F00C0002CEC
:101A10005BB900C015FF8BB927958894E1FC230FB3
:101A200000C000C0002C8BB92795889400C0002C02
:101A30005BB900C014FF8BB9E2FC230F2795889493
:101A400000C000C0002C8BB9E3FC230F00C0002CA9
:101A50005BB900C013FF8BB927958894E4FC230F72
:101A600000C000C0002C8BB92795889400C0002CC2
:101A70005BB900C012FF8BB9E5FC230F2795889452
:101A800000C000C0002C8BB9E6FC230F00C0002C66
:101A90005BB900C011FF8BB927958894E7FC230F31
:101AA00000C000C0002C8BB92795889400C0002C82
:101AB0005BB900C010FF8BB9132FE110122F4195B5
:101AC00000C000C0002C8BB94C0D00C000C05BB939
:101AD00000C017FF8BB931812227889400C000C055
:101AE000002C8BB93111390F00C0002C5BB900C03C
:101AF00016FF8BB908F43FEF9195889400C000C0A1
:101B0000002C8BB970FD230F00C0002C5BB900C006
:101B100015FF8BB92795889471FD230F00C000C075
:101B2000002C8BB92795889400C0002C5BB900C0AD
:101B300014FF8BB972FD230F2795889400C000C055
:101B4000002C8BB973FD230F00C0002C5BB900C0C3
:101B500013FF8BB92795889474FD230F00C000C034
:101B6000002C8BB92795889400C0002C5BB900C06D
:101B700012FF8BB975FD230F2795889400C000C014
:101B8000002C8BB976FD230F00C0002C5BB900C080
:101B900011FF8BB92795889477FD230F00C000C0F3
:101BA000002C8BB92795889400C0002C5BB900C02D
:101BB00010FF8BB9132F7111122F960F00C000C0A8
:101BC000002C8BB9119709F086CE20EE31E0D201BE
:101BD0000E946F2EDC01CB01F4E0B695A795979596
:101BE0008795FA95D1F720E030E0A9016AE9469E91
:101BF000040C411D569E400D511D1124450D511DD3
:101C0000840F951FA11DB11D893E43E09407A105D6
:101C1000B10508F434C0885E9340A109B10942E0DF
:101C2000B695A795979587954A95D1F747E0849FF4
:101C3000080E211D949F200D311D1124290F311DE7
:101C400060916F0370E0860F971F820F931F409182
:101C50000F07509110076091110770911207292FFB
:101C60003327420F531F611D711D40930F0750937F
:101C70001007609311077093120780936F03789495
:101C80000E943D22F301708B6787DF91CF911F91F6
:101C90000F91FF90EF90CF90BF90AF908F907F907B
:101CA0006F905F904F9008950F931F93CF93DF93A2
:101CB000CDB7DEB762970FB6F894DEBF0FBECDBFCB
:101CC0008C01F901DC011C968C917A8369835C8319
:101CD0004B835E834D8390819D8791819E87928106
:101CE0009F87813029F4CE0101960E94BB2306C054
:101CF0001C861B861A86198618861F82188A1A8ADD
:101D0000198AD801ED91FC910484F585E02DBE017E
:101D10006F5F7F4FC801099562960FB6F894DEBFDA
:101D20000FBECDBFDF91CF911F910F9108950F93FB
:101D30001F93CF93DF93CDB7DEB762970FB6F894BA
:101D4000DEBF0FBECDBF8C01F901DC011C968C916A
:101D50007A8369835C834B835E834D8390819D8707
:101D600091819E8792819F87813029F4CE010196CF
:101D70000E94BB2306C01C861B861A8619861886FD
:101D80001F8283E0888B1A8A198AD801ED91FC9111
:101D90000484F585E02DBE016F5F7F4FC801099572
:101DA00062960FB6F894DEBF0FBECDBFDF91CF9124
:101DB0001F910F910895CF93DF93CDB7DEB7E097D2
:101DC0000FB6F894DEBF0FBECDBF67E773E0CE015C
:101DD00001960E94AD1FCE0101960E94C404E096B8
:101DE0000FB6F894DEBF0FBECDBFDF91CF9108953F
:101DF000CF93DF93CDB7DEB7E0970FB6F894DEBF91
:101E00000FBECDBF67E773E0CE0101960E94AD1F04
:101E1000CE0101960E949703E0960FB6F894DEBFBC
:101E20000FBECDBFDF91CF910895CF93DF93CDB794
:101E3000DEB7E0970FB6F894DEBF0FBECDBF67E701
:101E400073E0CE0101960E94AD1FCE0101960E9463
:101E5000D305E0960FB6F894DEBF0FBECDBFDF917D
:101E6000CF910895CF93DF93CDB7DEB7E0970FB64C
:101E7000F894DEBF0FBECDBF67E773E0CE010196D9
:101E80000E94AD1FCE0101960E944607E0960FB654
:101E9000F894DEBF0FBECDBFDF91CF910895CF93F1
:101EA000DF9300D000D000D0CDB7DEB7E0910401C1
:101EB000F0E0CF01880F991FE80FF91FE654F94FA2
:101EC00080818C8381818D8382818E8340910D01FD
:101ED000469550E019821A821B829E012C5F3F4F6B
:101EE000BE016F5F7F4F80E090E00E94411E1C8228
:101EF0001D821E8280910D01E0910401F0E09F019E
:101F0000220F331FE20FF31FE654F94F908199839C
:101F100091819A8392819B83482F50E041505109CF
:101F2000869590E09E012C5F3F4FBE016F5F7F4F13
:101F300001960E94411E26960FB6F894DEBF0FBE92
:101F4000CDBFDF91CF910895CF93DF9300D000D024
:101F500000D0CDB7DEB7E0910501F0E0CF01880FEA
:101F6000991FE80FF91FE654F94F80818C83818116
:101F70008D8382818E8340910D01469550E01982B8
:101F80001A821B829E012C5F3F4FBE016F5F7F4F05
:101F900080E090E00E94411E1C821D821E82809182
:101FA0000D01E0910501F0E09F01220F331FE20FC8
:101FB000F31FE654F94F9081998391819A8392811E
:101FC0009B83482F50E041505109869590E09E0137
:101FD0002C5F3F4FBE016F5F7F4F01960E94411EF5
:101FE00026960FB6F894DEBF0FBECDBFDF91CF911E
:101FF0000895CF93DF9300D01F92CDB7DEB7E09165
:102000000401F0E0CF01880F991FE80FF91FE65493
:10201000F94F8081898381818A8382818B83CE017C
:1020200001960E94030B0F900F900F90DF91CF91BC
:102030000895CF93DF9300D01F92CDB7DEB7E09124
:102040000501F0E0CF01880F991FE80FF91FE65452
:10205000F94F8081898381818A8382818B83CE013C
:1020600001960E94030B0F900F900F90DF91CF917C
:1020700008950F931F93CF93DF9300D01F92CDB796
:10208000DEB78C010E9462229B01AC0160E078EE19
:1020900086E191E00E942B2E8115914540F0F801D8
:1020A0008081898381818A8382818B8303C01982A5
:1020B0001A821B82CE0101960E946A030F900F9034
:1020C0000F90DF91CF911F910F910895CF93DF93E0
:1020D00000D01F92CDB7DEB7E0910401F0E0CF0150
:1020E000880F991FE80FF91FE654F94F8081898303
:1020F00081818A8382818B83CE0101960E9439106F
:102100000F900F900F90DF91CF910895CF93DF93B1
:1021100000D01F92CDB7DEB7E0910501F0E0CF010E
:10212000880F991FE80FF91FE654F94F80818983C2
:1021300081818A8382818B83CE0101960E9439102E
:102140000F900F900F90DF91CF910895CF93DF9371
:1021500000D01F92CDB7DEB78FEF89838A838B8340
:10216000CE0101960E9439100F900F900F90DF91D1
:10217000CF910895CF93DF9300D01F92CDB7DEB7F4
:102180008FEF89838AEE8A831B82CE0101960E949B
:1021900039100F900F900F90DF91CF910895CF934A
:1021A000DF9300D01F92CDB7DEB719821A828FEF6E
:1021B0008B83CE0101960E9439100F900F900F90E3
:1021C000DF91CF910895CF93DF9300D01F92CDB7C9
:1021D000DEB78FEF89831A821B82CE0101960E949F
:1021E00039100F900F900F90DF91CF9108958F923B
:1021F0009F92AF92BF92CF92DF92EF92FF921F9386
:10220000CF93DF9300D01F92CDB7DEB77C014B0197
:102210000E946222A12CB12C685E7E4F8F4F9F4F8F
:10222000A50194010E94832A6D3241E07407D8F41D
:102230006739710540F44FEF469F9001479F300D7D
:102240001124C9010AC02CE231E0261B370B4FEFE5
:10225000429FC001439F900D112466E970E00E94E7
:10226000472E162F01C014E10E946222A50194019D
:102270000E94832A693C7105D8F46536710540F4E3
:102280004FEF469F9001479F300D1124C9010AC0AE
:1022900028EC30E0261B370B4FEF429FC001439FD5
:1022A000900D112464E670E00E94472E262F01C095
:1022B00024E1210F08F42FEF80910601882371F1AA
:1022C0008DEDA82E83E0B82E9FEDC92E93E0D92E78
:1022D000812C912C122F109580910D0190E0881681
:1022E000990664F5D7018C91F5018083F601319749
:1022F00011968C911197808312968C91D6018C93B4
:10230000612FC5010E944E03BFEF8B1A9B0AE3E0C9
:10231000AE0EB11CF3E0CF0ED11CDECF622F609564
:10232000C7010E944E03FC018081898381818A83D9
:1023300082818B83CE0101960E946A030F900F90D9
:102340000F90DF91CF911F91FF90EF90DF90CF9092
:10235000BF90AF909F908F900895CF93DF9300D060
:102360001F92CDB7DEB7E0910401F0E0CF01880FF6
:10237000991FE80FF91FE654F94F80818983818105
:102380008A8382818B8360E273E0CE0101960E9492
:10239000F7100F900F900F90DF91CF910895CF938A
:1023A000DF9300D01F92CDB7DEB7E0910401F0E0DB
:1023B000CF01880F991FE80FF91FE654F94F80816C
:1023C000898381818A8382818B8368EE73E0CE0169
:1023D00001960E94F7100F900F900F90DF91CF9110
:1023E0000895CF93DF9300D01F92CDB7DEB7E09171
:1023F0000401F0E0CF01880F991FE80FF91FE654A0
:10240000F94F8081898381818A8382818B836CEDFE
:1024100075E0CE0101960E94F7100F900F900F907B
:10242000DF91CF910895CF93DF9300D01F92CDB766
:10243000DEB7E0910501F0E0CF01880F991FE80FAA
:10244000F91FE654F94F8081898381818A838281D3
:102450008B8360E273E0CE0101960E94F7100F902B
:102460000F900F90DF91CF910895CF93DF9300D01D
:102470001F92CDB7DEB7E0910501F0E0CF01880FE4
:10248000991FE80FF91FE654F94F808189838181F4
:102490008A8382818B8368EE73E0CE0101960E946D
:1024A000F7100F900F900F90DF91CF910895CF9379
:1024B000DF9300D01F92CDB7DEB7E0910501F0E0C9
:1024C000CF01880F991FE80FF91FE654F94F80815B
:1024D000898381818A8382818B836CED75E0CE0153
:1024E00001960E94F7100F900F900F90DF91CF91FF
:1024F0000895CF93DF9300D01F92CDB7DEB78DE460
:1025000089838A838B8368EE73E0CE0101960E94F3
:10251000F7100F900F900F90DF91CF910895CF9308
:10252000DF9300D01F92CDB7DEB78FEF89838A8308
:102530008B8368EE73E0CE0101960E94F7100F9036
:102540000F900F90DF91CF910895CF93DF9300D03C
:102550001F92CDB7DEB719821A8289E98B8368EEA4
:1025600073E0CE0101960E94F7100F900F900F902C
:10257000DF91CF910895CF93DF9300D01F92CDB715
:10258000DEB789E989831A821B8268EE73E0CE0187
:1025900001960E94F7100F900F900F90DF91CF914E
:1025A0000895CF92DF92EF92FF920F931F93CF93F4
:1025B000DF9300D01F92CDB7DEB78C01809106016A
:1025C000C62ED12CE12CF12C882309F4ABC00E943B
:1025D00062229B01AC01C701B6010E942B2E0E9412
:1025E000012C20E030E04AEF54E40E94262B2BED32
:1025F0003FE049E450E40E94552D0E94C22D0E9404
:10260000A02B22EB3AE54CEB5EE30E94B42A20E0DB
:1026100030E048ED52E40E94552D9B01AC0160E092
:1026200070E08FE793E40E94B42A20E030E0A90133
:102630000E94212B87FD67C00E9462229B01AC0192
:10264000C701B6010E942B2E0E94012C20E030E031
:102650004AEF54E40E94262B2BED3FE049E450E47E
:102660000E94552D0E94C22D0E94A02B22EB3AE51C
:102670004CEB5EE30E94B42A20E030E048ED52E4E7
:102680000E94552D9B01AC0160E070E08FE793E460
:102690000E94B42A20E030E04BE653E40E94DA2C9A
:1026A00018169CF10E9462229B01AC01C701B60181
:1026B0000E942B2E0E94012C20E030E04AEF54E4CF
:1026C0000E94262B2BED3FE049E450E40E94552D5B
:1026D0000E94C22D0E94A02B22EB3AE54CEB5EE358
:1026E0000E94B42A20E030E048ED52E40E94552DCB
:1026F0009B01AC0160E070E08FE793E40E94B42A94
:102700000E94D22B03C060E001C06BEEC8010E94A2
:102710004E0360910D0170E0AC018DED93E00E94DD
:10272000A1233EC00E9462229B01AC01C701B601F9
:102730000E942B2E0E94012C20E030E04AEF54E44E
:102740000E94262B2BED3FE049E450E40E94552DDA
:102750000E94C22D0E94A02B22EB3AE54CEB5EE3D7
:102760000E94B42A20E030E048ED52E40E94552D4A
:102770009B01AC0160E070E08FE793E40E94B42A13
:102780000E94D22BC8010E944E03FC0180818983E4
:1027900081818A8382818B83CE0101960E946A03A4
:1027A0000F900F900F90DF91CF911F910F91FF909D
:1027B000EF90DF90CF900895CF93DF9300D01F92DA
:1027C000CDB7DEB7E0910401F0E0CF01880F991F8B
:1027D000E80FF91FE654F94F8081898381818A834C
:1027E00082818B8363E0CE0101960E94D1120F900B
:1027F0000F900F90DF91CF910895CF93DF9300D08A
:102800001F92CDB7DEB7E0910401F0E0CF01880F51
:10281000991FE80FF91FE654F94F80818983818160
:102820008A8382818B8361E0CE0101960E94D1125E
:102830000F900F900F90DF91CF910895CF93DF937A
:1028400000D01F92CDB7DEB7E0910501F0E0CF01D7
:10285000880F991FE80FF91FE654F94F808189838B
:1028600081818A8382818B8363E0CE0101960E94FD
:10287000D1120F900F900F90DF91CF910895CF93C9
:10288000DF9300D01F92CDB7DEB7E0910501F0E0F5
:10289000CF01880F991FE80FF91FE654F94F808187
:1028A000898381818A8382818B8361E0CE01019655
:1028B0000E94D1120F900F900F90DF91CF91089549
:1028C000CF93DF9300D01F92CDB7DEB78DE489831D
:1028D0008A838B8361E0CE0101960E94D1120F9012
:1028E0000F900F90DF91CF910895CF93DF9300D099
:1028F0001F92CDB7DEB719821A8289E98B8361E016
:10290000CE0101960E94D1120F900F900F90DF918F
:10291000CF910895CF93DF9300D01F92CDB7DEB74C
:1029200089E989831A821B8261E0CE0101960E94A7
:10293000D1120F900F900F90DF91CF9108956F9269
:102940007F928F929F92AF92BF92CF92DF92EF923F
:10295000FF920F931F93CF93DF9300D01F92CDB7B9
:10296000DEB78C01F090090160910A0180910601A7
:10297000882309F49DC0862F90E0A0E0B0E0BC0160
:10298000CD0132E0660F771F881F991F3A95D1F766
:102990002FE130E040E050E00E94512ABA01A90145
:1029A0004F5F5F4F6F4F7F4F80917003282F240F31
:1029B0002093700360910D01261710F010927003A0
:1029C00019821A821B8270E0AE014F5F5F4F8DED5E
:1029D00093E00E94A1232F2D30E0ACEDB0E00E94E7
:1029E000A52A2FE130E040E050E00E94512AC22E9B
:1029F0009DED892E93E0992E2FEDA22E23E0B22E8D
:102A0000612C712C80910D0190E0F801D080E18063
:102A1000F28068167906BCF4F401D192BF01F50189
:102A20003197E082F501F0822C2DA501C4010E94AE
:102A3000EC0AFFEF6F1A7F0A83E0880E911CE3E037
:102A4000AE0EB11CDFCF2091700330E0F901EE0F24
:102A5000FF1FDF01A20FB31FA352BC4FDC921196E0
:102A6000EC9211971296FC926D2DDF1408F46F2DE5
:102A70006E1508F46E2D70E080E09FEF0E94472EE7
:102A80002E0F3F1FF901E352FC4FD69EC001D79E87
:102A9000900D11249083E69EC001E79E900D1124B5
:102AA0009183F69EC001F79E900D112492830BC076
:102AB000F8018081898381818A8382818B83CE0121
:102AC00001960E946A030F900F900F90DF91CF91B3
:102AD0001F910F91FF90EF90DF90CF90BF90AF903C
:102AE0009F908F907F906F900895CF93DF9300D049
:102AF0001F92CDB7DEB7E0910401F0E0CF01880F5F
:102B0000991FE80FF91FE654F94F8081898381816D
:102B10008A8382818B83CE0101960E949F140F903D
:102B20000F900F90DF91CF910895CF93DF9300D056
:102B30001F92CDB7DEB7E0910501F0E0CF01880F1D
:102B4000991FE80FF91FE654F94F8081898381812D
:102B50008A8382818B83CE0101960E949F140F90FD
:102B60000F900F90DF91CF910895CF93DF9300D016
:102B70001F92CDB7DEB78DE489838A838B83CE0124
:102B800001960E949F140F900F900F90DF91CF91AC
:102B90000895CF93DF9300D01F92CDB7DEB719828F
:102BA0001A8289E98B83CE0101960E949F140F90AF
:102BB0000F900F90DF91CF910895CF93DF9300D0C6
:102BC0001F92CDB7DEB789E989831A821B82CE01B5
:102BD00001960E949F140F900F900F90DF91CF915C
:102BE00008958F929F92AF92BF92CF92DF92EF9211
:102BF000FF920F931F93CF93DF9300D000D000D0AC
:102C0000CDB7DEB77C0120910901D0900A018091F7
:102C10000601882309F46BC030E0A6E1B0E00E9411
:102C2000A52A2FE1822E912CA12CB12CA501940173
:102C30000E94512ADA01C9010896A11DB11D082F71
:102C4000069510910D011150101B2D2D30E0A9E1BA
:102C5000B0E00E94A52AA50194010E94512ADA0140
:102C6000C9010A96A11DB11D412F602F0E94D21DDE
:102C7000C82E8093700319821A821B8260910D0105
:102C800070E0AE014F5F5F4F8DED93E00E94A12396
:102C9000F70180818C8381818D8382818E83D12C09
:102CA00019821A821B8210E09E012C5F3F4FA60101
:102CB000BE016F5F7F4FC601801B910B0E94411EBA
:102CC0001C821D821E82F7018081898381818A8313
:102CD00082818B83A601400F511F9E012C5F3F4FC5
:102CE000BE016F5F7F4FC6010E94411E0BC0F701FE
:102CF0008081898381818A8382818B83CE01019641
:102D00000E946A0326960FB6F894DEBF0FBECDBFB1
:102D1000DF91CF911F910F91FF90EF90DF90CF90B7
:102D2000BF90AF909F908F900895CF93DF9300D086
:102D30001F92CDB7DEB7E0910401F0E0CF01880F1C
:102D4000991FE80FF91FE654F94F8081898381812B
:102D50008A8382818B83CE0101960E94F1150F90A8
:102D60000F900F90DF91CF910895CF93DF9300D014
:102D70001F92CDB7DEB7E0910501F0E0CF01880FDB
:102D8000991FE80FF91FE654F94F808189838181EB
:102D90008A8382818B83CE0101960E94F1150F9068
:102DA0000F900F90DF91CF910895CF93DF9300D0D4
:102DB0001F92CDB7DEB78DE489838A838B83CE01E2
:102DC00001960E94F1150F900F900F90DF91CF9117
:102DD0000895CF93DF9300D01F92CDB7DEB789E976
:102DE00089831A821B82CE0101960E94F1150F90F1
:102DF0000F900F90DF91CF9108952F923F924F92B5
:102E00005F926F927F928F929F92AF92BF92CF927A
:102E1000DF92EF92FF920F931F93CF93DF9300D037
:102E200000D000D0CDB7DEB74C014AEF50E06CEDDA
:102E300070E087E590E00E94FD1D40EE50E060E606
:102E400070E085E591E00E94FD1D182F40E058E2FA
:102E500060E079E18BEC90E00E94FD1D9D838C8306
:102E60004CE350E067E170E083E990E00E94FD1DD3
:102E7000582EC0907503D09076034CED55E06CE26F
:102E800071E081E790E00E94FD1D3C010E946222FA
:102E900020917303309174035B01A21AB30A7093FB
:102EA0007403609373035A9C70015B9CF00C1124B3
:102EB0008091710390917203E80EF91EF0927203F3
:102EC000E092710349E050E065E070E080E991E054
:102ED0000E94FD1D9C01A29EC001A39E900DB29E6A
:102EE000900D11249C012C0D3D1D309376032093F1
:102EF000750380910601882309F454C0A12CB12CDC
:102F0000212E312C412C512C10951E8380910D01C6
:102F100090E0A816B90608F053C0C60CD71CC6012D
:102F2000880F892F881F990B91951D2D90FD109565
:102F30008C819D81E80EF91EC7010E947409DC0195
:102F4000B0589D010E94A52A9C0144275527C20123
:102F5000B1010E942B2E2E81280F412F30EF439F6D
:102F6000040E40E0411D112401E010E0B401CE0147
:102F700001960E94062380910D0190E001978A1925
:102F80009B099C01220F331F820F931F40E8BE0153
:102F90006F5F7F4F83529C4F0E9472238FEFA81A5E
:102FA000B80AB4CF01E010E02FEF40912D03B40137
:102FB000CE0101960E940623CE0101960E946A036B
:102FC00026960FB6F894DEBF0FBECDBFDF91CF912E
:102FD0001F910F91FF90EF90DF90CF90BF90AF9037
:102FE0009F908F907F906F905F904F903F902F9029
:102FF0000895CF93DF93CDB7DEB7E0970FB6F8947F
:10300000DEBF0FBECDBF67E773E0CE0101960E9421
:10301000AD1FCE0101960E94FD16E0960FB6F89402
:10302000DEBF0FBECDBFDF91CF91089581E08093C9
:103030000C011092080110920B01E4E8F0E081E02D
:1030400090E091838083808191819093AA03809303
:10305000A90362E070E080E19CE10C947D1DBF92C9
:10306000CF92DF92EF92FF920F931F93CF93DF9354
:1030700000D01F92CDB7DEB780910601882361F1A1
:103080008FEDE82E83E0F82EC12CD12C81E0B82EF4
:10309000BE184B2D4E0D80910D0190E0C816D9063B
:1030A00054F500E010E02091070167E773E0CE01DE
:1030B00001960E940623F701329789818083319619
:1030C0008A8180838B81F7018083FFEFCF1ADF0A2B
:1030D00083E0E80EF11CDDCF01E010E02FEF40911E
:1030E0002D0367E773E0CE0101960E940623CE010F
:1030F00001960E946A030F900F900F90DF91CF917D
:103100001F910F91FF90EF90DF90CF90BF900895A7
:10311000CF93DF9300D01F92CDB7DEB719821A820A
:103120001B82CE0101960E946A030F900F900F90B0
:10313000DF91CF910895CF93DF9300D01F92CDB749
:10314000DEB78AE189838A838B83CE0101960E9450
:103150006A030F900F900F90DF91CF910895CF9356
:10316000DF9300D01F92CDB7DEB78DE489838A83C9
:103170008B83CE0101960E946A030F900F900F90EF
:10318000DF91CF910895CF93DF9300D01F92CDB7F9
:10319000DEB78FEF89838A838B83CE0101960E94ED
:1031A0006A030F900F900F90DF91CF910895CF9306
:1031B000DF9300D01F92CDB7DEB78AEA89831A82E7
:1031C0008FEF8B83CE0101960E946A030F900F90C0
:1031D0000F90DF91CF910895CF93DF9300D01F928E
:1031E000CDB7DEB780E889831A828FEF8B83CE015B
:1031F00001960E946A030F900F900F90DF91CF917C
:103200000895CF93DF9300D01F92CDB7DEB7198218
:103210001A828FEF8B83CE0101960E946A030F9072
:103220000F900F90DF91CF910895CF93DF9300D04F
:103230001F92CDB7DEB719821A8289E98B83CE013E
:1032400001960E946A030F900F900F90DF91CF912B
:103250000895CF93DF9300D01F92CDB7DEB71982C8
:1032600080E88A838FEF8B83CE0101960E946A03E8
:103270000F900F900F90DF91CF910895CF93DF9330
:1032800000D01F92CDB7DEB719828FEF8A838B8370
:10329000CE0101960E946A030F900F900F90DF916C
:1032A000CF910895CF93DF9300D01F92CDB7DEB7B3
:1032B00019828FEF8A838AEA8B83CE0101960E945E
:1032C0006A030F900F900F90DF91CF910895CF93E5
:1032D000DF9300D01F92CDB7DEB719828FEF8A83BC
:1032E0001B82CE0101960E946A030F900F900F90EF
:1032F000DF91CF910895CF93DF9300D01F92CDB788
:10330000DEB7198289E98A831B82CE0101960E9469
:103310006A030F900F900F90DF91CF910895CF9394
:10332000DF9300D01F92CDB7DEB780E889838FEF9F
:103330008A831B82CE0101960E946A030F900F9030
:103340000F90DF91CF910895CF93DF9300D01F921C
:10335000CDB7DEB78FEB89838FEF8A831B82CE01D7
:1033600001960E946A030F900F900F90DF91CF910A
:103370000895CF93DF9300D01F92CDB7DEB78FEFC4
:1033800089838A831B82CE0101960E946A030F9073
:103390000F900F90DF91CF910895CF93DF9300D0DE
:1033A0001F92CDB7DEB78FEF89838AEE8A831B82A7
:1033B000CE0101960E946A030F900F900F90DF914B
:1033C000CF910895CF93DF9300D01F92CDB7DEB792
:1033D0008FEF89838CE88A831B82CE0101960E943D
:1033E0006A030F900F900F90DF91CF910895CF93C4
:1033F000DF9300D01F92CDB7DEB78FEF89838AE6C7
:103400008A831B82CE0101960E946A030F900F905F
:103410000F90DF91CF910895CF93DF9300D01F924B
:10342000CDB7DEB78FEF89831A821B82CE0101965A
:103430000E946A030F900F900F90DF91CF91089533
:10344000CF93DF9300D01F92CDB7DEB789E9898390
:103450001A821B82CE0101960E946A030F900F9080
:103460000F90DF91CF910895CF93DF9300D01F92FB
:10347000CDB7DEB78FEF89831A828AEA8B83CE01BC
:1034800001960E946A030F900F900F90DF91CF91E9
:103490000895CF93DF9300D01F92CDB7DEB7909100
:1034A000060180910501992359F190E0AC01440F88
:1034B000551F840F951FAC014654594F60910D0163
:1034C00070E08DED93E00E94A12380910D016BE9E6
:1034D00090E00E94FC1EE0910401F0E0CF01880F13
:1034E000991FE80FF91FE654F94F80818983818184
:1034F0008A8382818B83CE0101960E94DF1E0AC0DF
:1035000090E09C01220F331F820F931F8654994F26
:103510000E943A030F900F900F90DF91CF91089582
:10352000CF93DF9300D01F92CDB7DEB79091060105
:1035300080910401992359F190E0AC01440F551F8B
:10354000840F951FAC014654594F60910D0170E0F6
:103550008DED93E00E94A12380910D016BE990E035
:103560000E94FC1EE0910501F0E0CF01880F991F39
:10357000E80FF91FE654F94F8081898381818A839E
:1035800082818B83CE0101960E94DF1E0AC090E0EB
:103590009C01220F331F820F931F8654994F0E9464
:1035A0003A030F900F900F90DF91CF910895CF9332
:1035B000DF9300D000D000D0CDB7DEB7E09104019A
:1035C000F0E0CF01880F991FE80FF91FE654F94F7B
:1035D00080818C8381818D8382818E8340910D01D6
:1035E000469550E0E0910501F0E0CF01880F991F6A
:1035F000E80FF91FE654F94F8081898381818A831E
:1036000082818B839E012C5F3F4FBE016F5F7F4F96
:1036100080E090E00E94411EE0910501F0E0CF01C2
:10362000880F991FE80FF91FE654F94F80818C83AA
:1036300081818D8382818E8380910D01E0910401CF
:10364000F0E09F01220F331FE20FF31FE654F94F02
:103650009081998391819A8392819B83482F50E036
:1036600041505109869590E09E012C5F3F4FBE016D
:103670006F5F7F4F01960E94411E26960FB6F89409
:10368000DEBF0FBECDBFDF91CF9108951F93CF93C3
:10369000DF93CDB7DEB72C970FB6F894DEBF0FBE21
:1036A000CDBF4FEF60E086E090E00E94D21D182F62
:1036B0006091040170E0CB01880F991F680F791F9A
:1036C0006654794FE0910501F0E0CF01880F991F12
:1036D000E80FF91FE654F94F80818C8381818D8337
:1036E00082818E83412FCE0104960E9472236091C5
:1036F000050170E0CB01880F991F680F791F665490
:10370000794FE0910401F0E0CF01880F991FE80F95
:10371000F91FE654F94F8081898381818A838281F0
:103720008B83412FCE0101960E94722389818A8763
:103730008A818B878B818C8740910D01469550E063
:103740008C818F838D8188878E8189879E01265FFA
:103750003F4FBE01695F7F4F80E090E00E94411EB5
:103760008C818A878D818B878E818C8780910D01DA
:1037700099819F839A8198879B819987482F50E0F0
:1037800041505109869590E09E01265F3F4FBE0152
:10379000695F7F4F01960E94411E2C960FB6F894E8
:1037A000DEBF0FBECDBFDF91CF911F9108951F9255
:1037B0000F920FB60F9211242F933F934F935F9365
:1037C0006F937F938F939F93AF93BF93EF93FF93E9
:1037D000809103010E94891D81E08093080110926D
:1037E0000B0110920C01FF91EF91BF91AF919F914E
:1037F0008F917F916F915F914F913F912F910F909A
:103800000FBE0F901F90189561E089E00E945B2128
:1038100061E08AE00E945B2160E08BE00C945B2118
:10382000CF93DF9320918400309185008091A9038C
:103830009091AA03E901C81BD90BCE01865C974081
:103840008B3D974008F044C08091A803AE0160E032
:1038500070E081111DC09A01AB01205D3740410924
:103860005109A4E6B0E00E94702A60342DE072078E
:1038700023E08207910541F020ED37E040E050E081
:103880000E94512A822F01C083E60E94891D4EC0EA
:10389000C091A703D0E0CC0FDD1FCD5DDD4F9A01B5
:1038A000AB01205D374041095109A3E6B0E00E9419
:1038B000702A20ED37E040E050E00E94512A822F2C
:1038C000E881F98109951092A8030E94041C2EC07A
:1038D000CE0188569041893C910540F580912C039A
:1038E000811124C081E08093A80360E089E00E94F8
:1038F0005B2161E08AE00E945B2160E08BE00E9436
:103900005B21CE01A0E0B0E09C01AD012856304122
:1039100041095109AAE0B0E00E94702A29EC30E088
:1039200040E050E00E94512A2093A7031092AA037E
:103930001092A90310920C01DF91CF91089560E0DD
:1039400089E00E945B2160E08AE00E945B2161E0E7
:103950008BE00C945B21CF93DF93CDB7DEB7E0977C
:103960000FB6F894DEBF0FBECDBFFC01DB015C914A
:10397000598311964C9111974A8312963C913B833F
:1039800020812C8391819D8382818E832F839887D0
:1039900089872A879B878C872D879E878F87288B8F
:1039A000998B8A8B2B8B9C8B8D8B2E8B9F8B888FEF
:1039B000298F9A8F8B8F5C8F4D8F3E8F5F8F48A39F
:1039C00039A35AA34BA33CA35DA34EA33FA328A7AF
:1039D00099A78AA72BA79CA78DA75EA74FA738AB4F
:1039E000BE016F5F7F4F87E793E00E94AD1FE096B7
:1039F0000FB6F894DEBF0FBECDBFDF91CF91089513
:103A0000CF93DF9300D000D000D0CDB7DEB7909138
:103A10002C0381E0892780932C0380912C03882339
:103A200031F00E949F1C8AE4809303014DC08CE01A
:103A300090E00E94B923809305018EE090E00E94FF
:103A4000B9238093040180E190E00E94B923809320
:103A50000D0182E190E00E94B92380930301198255
:103A60001A821B82AE014F5F5F4F60EF70E08DEDF9
:103A700093E00E94A123E0910401F0E0CF01880FC0
:103A8000991FE80FF91FE654F94F80818C838181DB
:103A90008D8382818E83E0910501F0E0CF01880F54
:103AA000991FE80FF91FE654F94F808189838181BE
:103AB0008A8382818B83BE016C5F7F4FCE0101962A
:103AC0000E94AB1C0E94041C26960FB6F894DEBF21
:103AD0000FBECDBFDF91CF91089520E330E0FB0111
:103AE000DC0120FF05C002C001900D9201900D92F3
:103AF0002250D0F73040C0F7089590930F01809383
:103B00000E01E9E6F0E080818C7F682B6083E89A03
:103B100008952091FF06309100072C5F364031F464
:103B20002FEF36E0309300072093FF06E091FF0669
:103B3000F09100073197F0930007E093FF06808330
:103B4000809103079091040783309105A9F4809137
:103B50000107909102079C0121503109309302071F
:103B6000209301078C5F9640C9F48EEF96E0909306
:103B700002078093010712C09C012F5F3F4F3093D3
:103B8000040720930307892B59F48091FF06909135
:103B90000007909302078093010702C080E0089518
:103BA00081E008950F931F93CF93DF93EC01062FCD
:103BB000142F8F3F910509F010F4DC2FCC270E94C1
:103BC00062229B01AC01A8E1B1E00E94702A9B0136
:103BD000AC01DE010E94702A892F0E942407101B6D
:103BE000282F219F020E20E0211D1124822F800FFB
:103BF000DF91CF911F910F910895AF92BF92CF9215
:103C0000DF92EF92FF920F931F93CF93DF935C01AC
:103C1000EB018A010E9462226B017C019501A8E1FF
:103C2000B1E00E94A52A9B01AC01C701B6010E9428
:103C30002B2E0E9474099C013058A8014C1B5D0B6F
:103C4000249FC001359FD001E0E0349F900DA11D5D
:103C5000BE1F259F900DA11DBE1F1124BC01CD01CB
:103C6000620F731F8E1F9E1F8C0F9D1FDF91CF91C0
:103C70001F910F91FF90EF90DF90CF90BF90AF908A
:103C800008957F928F929F92AF92BF92CF92DF92D0
:103C9000EF92FF920F931F93CF93DF93FC01EB0101
:103CA0007A01D90148175907C8F42C9111969C91B3
:103CB000119712968C91129738813C933981119605
:103CC0003C9311973A8112963C93129728839983DB
:103CD0008A839E2F8F2FFA01E92EF82EC880D12CCF
:103CE0008C9190E08C199D099695982F882797952F
:103CF0008795098110E01196AC901197B12CA01A0C
:103D0000B10AB694BA2CAA24B794A7942A8130E0B9
:103D10001296CC91D0E0C21BD30BD695DC2FCC27CA
:103D2000D795C795A7014E1B5F0B19F0742E452F31
:103D300003C07724739440E0672D742F0E945B2E9C
:103D40004B01C501672D742F0E945B2E5B01CE01D4
:103D5000672D742F0E945B2E880C991CAA0CBB1C2B
:103D6000660F771FDC2CCC24102F0027322F222740
:103D7000DF01AA0FBB1FAE0FBF1FA152BC4FEE1633
:103D8000FF0678F0ED012297D882219618833C93A4
:103D9000C80CD91C0A0D1B1D260F371F3196139610
:103DA000EECFDF91CF911F910F91FF90EF90DF90B9
:103DB000CF90BF90AF909F908F907F900895CF93BA
:103DC000DF93EC010E949B098F3F99F080910D01D8
:103DD0000E94B009E82FF0E0CF01880F991FE80F8B
:103DE000F91FE352FC4F88818083898181838A8116
:103DF0008283DF91CF910895CF93DF93ADEDB3E050
:103E0000EFEDF3E040E050E048175907C9F02C917E
:103E1000269F020E20E0211D2C93EF012A91269F60
:103E2000020E20E0211D28832081269F020E20E023
:103E3000211D208311244F5F5F4F13963396E4CFEB
:103E4000DF91CF910895FB01DC014C91242F2F715C
:103E5000220F220F822F880F55E5282F259F020E53
:103E600020E0211D1124342F3074942F907247FDCF
:103E700020C0311109C0911103C0422F409510C0DC
:103E80002B5A80E04BEA3AC091110FC0382F4AEA12
:103E9000349F030E30E0311D11244BEA431B26559D
:103EA000442309F435C080E029C080E0322F3095EA
:103EB0004DC0311110C091110BC0282F3AEA239F39
:103EC000020E20E0211D11243BEA321B2B5A3EC07A
:103ED000322F20950DC0911106C035E5320F8BEAC7
:103EE000821B282F05C03AEA320F80E0521B252F93
:103EF000332309F42DC0822F432F20E038EC439F59
:103F0000040E40E0411D322F282F332351F004C00E
:103F1000222301F1322F20E058EC359F030E30E0D0
:103F2000311D222329F058EC259F020E20E0211D8F
:103F3000112457E3559F050E50E0511D1124450FE4
:103F40004083350F3183250F2283089540E0DDCF74
:103F500040E0E7CF422F30E0EBCF8617970710F411
:103F60000C946D1DC096605D7F4F20E330E0FB0137
:103F7000DC0120FF05C002C002900E9202900E925A
:103F80002250D0F73040C0F7089520E030E0FC0127
:103F90004591559165917491F901E355FC4F60830A
:103FA0005183428304962D5F3F4F2033310579F7CB
:103FB0008DEA93E008953F924F925F926F927F92C5
:103FC0008F929F92AF92BF92CF92DF92EF92FF9229
:103FD0000F931F93CF93DF9300D01F92CDB7DEB71F
:103FE000F090AD068091B0069091B106A091B20616
:103FF000B091B306892B8A2B8B2BE9F00E943D22CE
:1040000000910B0710910C0720910D0730910E07BE
:10401000DC01CB01801B910BA20BB30B0091B0060E
:104020001091B1062091B2063091B3068017910726
:10403000A207B307B8F20E943D2260930B0770936A
:104040000C0780930D0790930E07E091B806F0914E
:10405000B906309759F04091B4065091B506609179
:10406000B6067091B7068F2D0995F82E0091AB0317
:104070001091AC034F2C512C612C712C01151105A2
:1040800009F461C0D8011C96EC901C978091AE0693
:104090009091AF068436910510F41C961C92D801BD
:1040A000ED91FC91A280B38019821A821B82F110DB
:1040B00014C0F80145855685628173819E012F5F8A
:1040C0003F4FC801F5010995D8011C96EC921C9749
:1040D00014960D911C911597D1CFF8013996CE0108
:1040E00001966C0148019CE0890E911CDF01139739
:1040F0003C902191332001F12223F1F0822F90E0B6
:10410000A0E0B0E09C01AD012F5F3F4F4F4F5F4FEC
:10411000C301B2010E942B2E9B01AC01832D90E0C4
:10412000A0E0B0E0BC01CD016F5F7F4F8F4F9F4F8C
:104130000E942B2ED6018C93BFEFCB1ADB0AE81519
:10414000F905A1F6B6CF8091090790910A078C0175
:104150000F5F1F4F10930A070093090749979CF1BF
:104160000E9462224B015C0188EE93E0089FB0013F
:10417000099F700D189F700D1124072E000C880BDD
:10418000990BC0900507D0900607E0900707F090C4
:104190000807A50194012C193D094E095F090E94E9
:1041A000832A3093AF062093AE0610920A0710922E
:1041B00009070E94622260930507709306078093A7
:1041C0000707909308070F900F900F90DF91CF9102
:1041D0001F910F91FF90EF90DF90CF90BF90AF9025
:1041E0009F908F907F906F905F904F903F90089539
:1041F000833081F028F4813099F08230A1F0089565
:104200008730A9F08830B9F08430D1F480918000F3
:104210008F7D03C0809180008F7780938000089508
:1042200084B58F7702C084B58F7D84BD0895809159
:10423000B0008F7703C08091B0008F7D8093B00075
:1042400008950895282F649FC0014095249F800DF4
:10425000911D1124820F911D860F911D892F0895A4
:104260000E947C2ECF93DF93282F30E0F901EC5C85
:10427000FD4F8491F901E05EFD4FD491F901E45FB7
:10428000FD4FC491CC2391F081110E94F820EC2FB6
:10429000F0E0EE0FFF1FEE5FFD4FA591B491EC91A2
:1042A000ED2381E090E021F480E002C080E090E026
:1042B000DF91CF9108951F93CF93DF93282F30E0A4
:1042C000F901EC5CFD4F8491F901E05EFD4FD49162
:1042D000F901E45FFD4FC491CC23C9F0162F811181
:1042E0000E94F820EC2FF0E0EE0FFF1FE850FE4F89
:1042F000A591B4918FB7F894111105C09C91ED2F41
:10430000E095E92302C0EC91ED2BEC938FBFDF9198
:10431000CF911F910895CF93DF9390E0FC01E05E71
:10432000FD4F2491FC01E45FFD4F8491882361F1EE
:1043300090E0880F991FFC01E251FE4FC591D49186
:10434000FC01E850FE4FA591B491611109C09FB7DF
:10435000F8948881209582238883EC912E230BC0CA
:10436000623061F49FB7F8943881822F809583235F
:104370008883EC912E2B2C939FBF06C08FB7F894A7
:10438000E8812E2B28838FBFDF91CF9108951F9353
:10439000CF93DF93182FEB0161E00E948B212097D0
:1043A00011F460E004C0CF3FD10539F461E0812F02
:1043B000DF91CF911F910C945B21E12FF0E0EC5C39
:1043C000FD4FE491E330F9F048F4E130B9F0E23028
:1043D000A1F584B5806284BDC8BD34C0E730E9F082
:1043E000E83019F1E43049F58091800080628093D3
:1043F0008000D0938B00C0938A0024C084B580686D
:1044000084BDC7BD1FC080918000806880938000FC
:10441000D0938900C093880015C08091B000806857
:104420008093B000C093B3000DC08091B000806253
:104430008093B000C093B40005C0C038D1050CF023
:10444000B5CFAFCFDF91CF911F9108958E3008F097
:104450008E508770806480937C0080917A008064A5
:1044600080937A0080917A0086FDFCCF809178005D
:104470002091790090E0922B08953FB7F8948091B5
:10448000150790911607A0911707B091180726B548
:10449000A89B05C02F3F19F00196A11DB11D3FBF7C
:1044A000BA2FA92F982F8827820F911DA11DB11D0A
:1044B000BC01CD0142E0660F771F881F991F4A9506
:1044C000D1F708952FB7F89460910F0770911007F6
:1044D00080911107909112072FBF08951F920F929C
:1044E0000FB60F9211242F933F938F939F93AF9307
:1044F000BF9380910F0790911007A0911107B09181
:1045000012073091140723E0230F2D3720F4019672
:10451000A11DB11D05C026E8230F0296A11DB11DE6
:104520002093140780930F0790931007A09311070F
:10453000B09312078091150790911607A091170765
:10454000B09118070196A11DB11D80931507909396
:104550001607A0931707B0931807BF91AF919F91CB
:104560008F913F912F910F900FBE0F901F90189534
:104570001F920F920FB60F9211242F933F934F93D8
:104580005F936F937F938F939F93AF93BF93EF93BB
:10459000FF93E0911001F09111010995FF91EF91C6
:1045A000BF91AF919F918F917F916F915F914F914B
:1045B0003F912F910F900FBE0F901F9018951F9253
:1045C0000F920FB60F9211242F933F934F935F9347
:1045D0006F937F938F939F93AF93BF93EF93FF93CB
:1045E000E0910E01F0910F010995FF91EF91BF91BC
:1045F000AF919F918F917F916F915F914F913F917B
:104600002F910F900FBE0F901F9018950F931F932F
:10461000CF93DF93E801142F12951F704F70FB01A9
:10462000312F330F310FDB01A30FB11D442319F0DC
:1046300071E0CD2B09F470E06C9111965C911197AB
:1046400012963C911297772309F427C01F3011F07E
:10465000FD0133964295407F142F10957081619F24
:10466000060E60E0611D749F070E70E0711D670FFC
:104670007181519F050E50E0511D749F070E70E02F
:10468000711D570F7281319F030E30E0311D749FF1
:10469000070E70E0711D370F11242F3FD1F0222338
:1046A000A9F02F5F662321F0629F060E60E0611D76
:1046B000552321F0529F050E50E0511D332321F068
:1046C000329F030E30E0311D112403C030E050E072
:1046D00060E0FC01608351833283DF91CF911F91B1
:1046E0000F910895FF920F931F93CF93DF93EC01E7
:1046F0008B01F42E4423F1F08FEF481307C0FB0128
:104700008081888381818983828113C0FB016081DC
:1047100088810E94222188834F2DF801618189813F
:104720000E94222189834F2DF80162818A810E9493
:1047300022218A83CE01DF91CF911F910F91FF90AB
:104740000895FA01029620E030E02617370774F446
:104750004081DC0112974C93418111964C93428128
:10476000DC014C932F5F3F4F0396EFCF08950C94DD
:10477000432A0C943B2AEF92FF920F931F93CF93FF
:10478000DF93EC01909113079F5F292F27702093EF
:10479000130790FF02C090E801C090E021FD9064F3
:1047A000247009F0906220E1290FFE013C967E0101
:1047B0008FE0E80EF11C00E011E06191662331F01A
:1047C00070E0C8010E945B2E6F5F01C060E0DF01F6
:1047D00014976C93322F369F030E30E0311D112455
:1047E000CF010797311103C0EC01188203C031508B
:1047F000EC013883662311F061506C93EE15FF05D0
:10480000E1F6DF91CF911F910F91FF90EF90089506
:10481000CF93DF93CDB7DEB72B970FB6F894DEBFFB
:104820000FBECDBF789484B5826084BD84B58160AD
:1048300084BD85B5826085BD85B5816085BD80916B
:104840006E00816080936E001092810080918100E3
:1048500082608093810080918100816080938100DB
:10486000809180008160809380008091B10084609D
:104870008093B1008091B00081608093B0008091FE
:104880007A00846080937A0080917A0082608093BD
:104890007A0080917A00816080937A0080917A001A
:1048A000806880937A001092C1000E943D224B01E3
:1048B0005C0148EEC42E43E0D42EE12CF12C0E9482
:1048C0003D22DC01CB0188199909AA09BB09883E60
:1048D0009340A105B10558F021E0C21AD108E108C2
:1048E000F10888EE880E83E0981EA11CB11CC1144B
:1048F000D104E104F10419F78EEA91E00E94C51F8A
:1049000081E090E090932A038093290360E082E0A5
:104910000E948B2162E082E00E945B2161E085E0E1
:104920000E948B2161E086E00E948B2161E083E0A0
:104930000E948B2160E085E00E945B2160E086E0C0
:104940000E945B2160E083E00E945B2161E089E0DE
:104950000E948B2161E08AE00E948B2161E08BE064
:104960000E948B2161E089E00E945B2161E08AE086
:104970000E945B2160E08BE00E945B2160E081E1AE
:104980000E948B2162E081E10E945B2160E080E176
:104990000E948B2162E080E10E945B2181E10E9404
:1049A0003221892B31F480E10E943221892B09F4D4
:1049B0009DC48CE090E00E94B9238F3F09F496C417
:1049C0008AE090E00E94B92391E0811101C090E05B
:1049D000909306018CE090E00E94B923809305013A
:1049E0008EE090E00E94B9238093040180E190E082
:1049F0000E94B92380930D0182E190E00E94B923C7
:104A000080930301E0910401F0E0CF01880F991F2A
:104A1000E80FF91FE654F94F8081898381818A83E9
:104A200082818B83E0910501F0E0CF01880F991F0F
:104A3000E80FF91FE654F94F80818C8381818D83C3
:104A400082818E83BE016F5F7F4FCE0104960E94EC
:104A5000AB1C809103010E94891D809103010E947B
:104A6000891D809103010E94891D8091420381115B
:104A700045C010923403109233038FEF80933703B5
:104A8000809338038093390380933A0380933B03E8
:104A900080933C0381E080933D0310923F0310928A
:104AA0003E0310923603109235038091AB03909130
:104AB000AC03892B31F481E393E09093AC038093B2
:104AC000AB03E0912F03F0913003309721F081E3A5
:104AD00093E09583848381E393E090933003809304
:104AE0002F0310924103109240038DE491E09093C4
:104AF00032038093310381E080934203E0913103DC
:104B0000F09132030480F581E02D81E393E0099573
:104B10008DED93E0909334038093330380EF90E026
:104B200090933F0380933E03E0913103F091320371
:104B30000284F385E02D81E393E00995009711F15C
:104B40009C0140E050E060E472E48FE090E00E945D
:104B5000512AC090B006D090B106E090B206F09015
:104B6000B306C901DA018C159D05AE05BF0510F429
:104B7000D701C6018093B0069093B106A093B20608
:104B8000B093B3068FEF8093370380EB80933803A5
:104B900080EF80933903809107018093AD0661E037
:104BA00084E00E948B2180910601882311F060E04F
:104BB00001C061E084E00E945B2119821A821B829D
:104BC000AE014F5F5F4F60EF70E08DED93E00E94AC
:104BD000A1230E94DB1F109280001092810010928E
:104BE00085001092840088EE9DEF90938900809359
:104BF000880080918100886080938100809181008D
:104C000082608093810080916F00826080936F004A
:104C100063E070E086E198E10E947D1DB3E02B2EF9
:104C2000312C812C14E0912EA12CB12C80910C01FF
:104C3000811148C080910B01811144C0E091FF06B1
:104C4000F0910007EC5FF640CF01B1010E945B2EAE
:104C5000DC01A450B94F4C9111E020E030E0C901D3
:104C60008E0F9F1FB1010E945B2EDC01A450B94F33
:104C70008C91481310E02F5F3F4F2330310579F7B7
:104C800080912B03811110C080912C03882309F49B
:104C90004CC3E0910301F0E0EE0FFF1FE55AFE4F19
:104CA0000190F081E02D09958091060181110E940B
:104CB000DB1F81E080930B0163E070E086E198E107
:104CC0000E947D1D8091670381111AC00E9462229B
:104CD00060935F037093600380936103909362031A
:104CE000E9E14E2E512C612C712C409263035092BD
:104CF0006403609265037092660381E080936703AA
:104D00000E946222C0905F03D0906003E090610334
:104D1000F0906203DC01CB018C199D09AE09BF093B
:104D2000C0906303D0906403E0906503F090660345
:104D30008C159D05AE05BF0508F403C10E946222D3
:104D400060935F03709360038093610390936203A9
:104D500090912E0380910A01890F80932E038091F8
:104D60002D038F5F80932D0381E10E943221892BD7
:104D700031F480E10E943221892B09F4DFC280E105
:104D80000E94322110914D03892B89F41F5F1093EB
:104D90004D0381E10E943221019779F580914E0304
:104DA00081112BC080912C03811127C0CDC21530F9
:104DB00020F180914E03811120C080910801882349
:104DC000D1F080914C03882319F010924C0313C04A
:104DD00080910301833660F4809103018091030187
:104DE00090E08336910524F4809103018F5F01C028
:104DF00083E68093030110924D0381E10E943221EA
:104E000010914B03892B71F41F5F10934B0380E1CA
:104E10000E943221019789F580914E03882309F47D
:104E20009EC22BC0153048F180914E03811125C0E0
:104E3000809108018823F9F080914A03882319F0B2
:104E400010924A0318C080910301811103C010928F
:104E5000030111C080910301882359F0809103015F
:104E600090E08536910524F480910301815001C0C2
:104E700083E68093030110924B0380914E038F369B
:104E800008F454C080912C03882309F44FC060E0DB
:104E900089E00E945B2161E08AE00E945B2161E081
:104EA0008BE00E945B21609106018AE090E06B87B5
:104EB0000E943B2A6B85681721F08AE090E00E94EF
:104EC000432A609105018CE090E06B870E943B2AA9
:104ED0006B85681721F08CE090E00E94432A609176
:104EE00004018EE090E06B870E943B2A6B85681777
:104EF00021F08EE090E00E94432A60910D0180E154
:104F000090E06B870E943B2A6B85681721F080E157
:104F100090E00E94432A809103018A3409F02AC25A
:104F20000E94001D10924D0310924B0381E10E94DC
:104F30003221019731F480E10E943221019709F476
:104F400029C280915703811119C00E946222609387
:104F50004F0370935003809351039093520386E95B
:104F600090E0A0E0B0E08093530390935403A093AB
:104F70005503B093560381E0809357030E94622249
:104F8000C0904F03D0905003E0905103F090520333
:104F9000DC01CB018C199D09AE09BF09C0905303F8
:104FA000D0905403E0905503F09056038C159D0566
:104FB000AE05BF0508F492C10E94622260934F03C0
:104FC00070935003809351039093520380912C036C
:104FD000882309F48FC08EE00E94262220EF30E063
:104FE000DC010E946F2E6130784F8F4F9F4FE4F0AD
:104FF0008EE00E94262220EF30E0DC010E946F2E1E
:105000006115704C834091058CF48EE00E9426223D
:1050100020EF30E0DC010E946F2EA50194010E9478
:10502000512A11E0120F03C010E001C010EF80916F
:105030000D011817D8F4809106018823B9F08DED81
:1050400093E02FEE30E0412F50E02417350764F055
:10505000FC01E353FD4F108231961082319610828D
:10506000215031090397F1CF0E94DB1F10930D01EE
:1050700084E10E94262226E130E0DC010E946F2EAE
:10508000A50194010E94512AF22E2093050185E189
:105090000E94262226E130E0DC010E946F2EA5014D
:1050A00094010E94512A2093040130E0F901EE0F8F
:1050B000FF1F2E0F3F1FF901E654F94F80818983AE
:1050C00081818A8382818B83EF2DF0E0CF01880F6D
:1050D000991FE80FF91FE654F94F80818C83818175
:1050E0008D8382818E83BE016F5F7F4FCE010496D8
:1050F0000E94AB1C84E10E9426222EE130E0DC01FC
:105100000E946F2EA50194010E94512A209309014B
:1051100085E10E9426222EE130E0DC010E946F2E04
:10512000A50194010E94512A20930A01809108014F
:10513000882369F180912C0361E0811111C08AE01C
:105140000E945B2161E089E00E945B218BE00E946C
:105150003221019711F460E001C061E08BE014C0DE
:105160008BE00E945B218AE00E943221019731F49A
:1051700060E08AE00E945B2160E005C061E08AE0B7
:105180000E945B2161E089E00E945B2109C080915F
:105190002C03811103C00E94041C02C00E949F1CAA
:1051A00080912C0381119AC010910D01812F90E004
:1051B000ADEDB3E01F82188619861A86C12CD12C5A
:1051C000760120E030E0A901009701F16C91260FF3
:1051D000311D411D511D11966C911197C60ED11CA8
:1051E000E11CF11C1396BD0161507109FB01608146
:1051F0004F80588469847A84460E511C611C711C4E
:105200004F82588669867A860197DECFA0E5B0E0A6
:105210000E94702A2B013C01A7E3B0E0A701960190
:105220000E94702A6B017C01ABE4B0E02F813885CD
:1052300049855A850E94702A452C562C672C772464
:10524000CD2CDE2CEF2CFF244C0C5D1C6E1C7F1C27
:1052500025E0129FF00111244E0E5F1E611C711C8F
:10526000BB27A92F982F872FA3019201280F391F41
:105270004A1F5B1FAFEFB0E00E94702A272F382F24
:10528000492F5527213C8DE538074105510540F050
:1052900060E472E68DE590E00E94832A122F01C03F
:1052A0001FEF8EE00E942622412F50E060E070E068
:1052B0009A01AB012852310941095109DC010E94D0
:1052C0007B2AA50194010E94512ADA01C90188961E
:1052D000A11DB11D809307018093AD06A0E0B0E051
:1052E000AB2B09F4A3CC0E940000A0CC6091060176
:1052F0008AE090E00E94B723609105018CE090E085
:105300000E94B723609104018EE090E00E94B723D1
:1053100060910D0180E190E00E94B723609103014C
:1053200082E190E00E94B7236DCB112321F04093DE
:105330000201E42FB0CCE0910201ADCC80914E038C
:105340008F5F80934E031BCD193208F456CD109217
:105350004D030E94090381E080934C034ECD133826
:1053600008F48BCD10924B030E94001D81E08093C6
:105370004A0383CD6091030182E190E06B870E9434
:105380003B2A6B85681709F4CBCD82E190E00E943F
:10539000432AC6CD10924E0310924D0310924B0338
:1053A000D0CDEDEAF6E08FEF808312821182148671
:1053B00013864FEF5FEFBA0147835087618772878B
:1053C000ECEFF6E0F483E383F683E583108617823F
:1053D000EAEBF6E0808311829AEA928339E933831B
:1053E0001482158286831782108681872AE6228797
:1053F000138684872CE82587168687872AEE208BDC
:10540000118A828B838B148A2FEB258B868B178ACC
:1054100020E8208F818F128E138E348F158E168E7A
:10542000878F10A211A282A393A314A285A386A39F
:1054300017A220A781A712A613A634A715A616A601
:1054400087A720AB11AA82AB93AB14AA85AB86AB1E
:1054500087AB80AF8DE481AF82AF83AF8AE184AF49
:105460008093F7068093F8061092F9061092FA06D8
:105470001092FB060895F999FECF92BD81BDF89A6E
:10548000992780B50895262FF999FECF1FBA92BDAE
:1054900081BD20BD0FB6F894FA9AF99A0FBE019615
:1054A0000895052E97FB1EF400940E94682A57FD6C
:1054B00007D00E94832A07FC03D04EF40C94682A7C
:1054C00050954095309521953F4F4F4F5F4F089530
:1054D00090958095709561957F4F8F4F9F4F089560
:1054E0000E94A52AA59F900DB49F900DA49F800DAA
:1054F000911D11240895B7FF0C94702A0E94702A00
:10550000821B930B0895A1E21A2EAA1BBB1BFD015F
:105510000DC0AA1FBB1FEE1FFF1FA217B307E40792
:10552000F50720F0A21BB30BE40BF50B661F771FEA
:10553000881F991F1A9469F76095709580959095CA
:105540009B01AC01BD01CF010895A29FB001B39FA3
:10555000C001A39F700D811D1124911DB29F700D7C
:10556000811D1124911D08955058BB27AA270E9420
:10557000CC2A0C94A02C0E94922C38F00E94992CDA
:1055800020F039F49F3F19F426F40C94682C0EF4A3
:10559000E095E7FB0C94622CE92F0E94B12C58F3A4
:1055A000BA17620773078407950720F079F4A6F508
:1055B0000C94D32C0EF4E0950B2EBA2FA02D0B01DA
:1055C000B90190010C01CA01A0011124FF27591B48
:1055D00099F0593F50F4503E68F11A16F040A22F4E
:1055E000232F342F4427585FF3CF469537952795BF
:1055F000A795F0405395C9F77EF41F16BA0B620BBE
:10560000730B840BBAF09150A1F0FF0FBB1F661F04
:10561000771F881FC2F70EC0BA0F621F731F841F47
:1056200048F4879577956795B795F7959E3F08F06D
:10563000B0CF9395880F08F09927EE0F979587952F
:1056400008950E943E2C08F481E008950E943A2BB0
:105650000C94A02C0E94992C58F00E94922C40F09F
:1056600029F45F3F29F00C94622C51110C94D42C36
:105670000C94682C0E94B12C68F39923B1F3552344
:1056800091F3951B550BBB27AA2762177307840755
:1056900038F09F5F5F4F220F331F441FAA1FA9F3EB
:1056A00035D00E2E3AF0E0E832D091505040E695D9
:1056B000001CCAF72BD0FE2F29D0660F771F881F3A
:1056C000BB1F261737074807AB07B0E809F0BB0B2D
:1056D000802DBF01FF2793585F4F3AF09E3F510541
:1056E00078F00C94622C0C94D42C5F3FE4F3983E39
:1056F000D4F3869577956795B795F7959F5FC9F72A
:10570000880F911D9695879597F90895E1E0660FAA
:10571000771F881FBB1F621773078407BA0720F023
:10572000621B730B840BBA0BEE1F88F7E09508958C
:1057300029F416F00C94622C0C94D32C0C94682C45
:105740000E94B92CA8F39638A0F707F80F92E894B6
:105750002BE33AEA48EB5FE70E946B2D0F920F9222
:105760000F924DB75EB70F920E94212DE8E6F0E050
:105770000E946B2C4F915F91EF91FF91E595EE1F89
:10578000FF1F49F0FE57E0684427EE0F441FFA95CB
:10579000E1F74195550B0E94EB2C0F9007FE0C94FE
:1057A000DF2C08950E94B92C88F09F5798F0B92FEC
:1057B0009927B751B0F0E1F0660F771F881F991F46
:1057C0001AF0BA95C9F714C0B13091F00E94D32CE9
:1057D000B1E008950C94D32C672F782F8827B85FF9
:1057E00039F0B93FCCF3869577956795B395D9F79E
:1057F0003EF490958095709561957F4F8F4F9F4FA8
:105800000895E89409C097FB3EF4909580957095B3
:1058100061957F4F8F4F9F4F9923A9F0F92F96E9FC
:10582000BB279395F695879577956795B795F11171
:10583000F8CFFAF4BB0F11F460FF1BC06F5F7F4F0E
:105840008F4F9F4F16C0882311F096E911C0772320
:1058500021F09EE8872F762F05C0662371F096E829
:10586000862F70E060E02AF09A95660F771F881FF8
:10587000DAF7880F9695879597F90895990F00089C
:10588000550FAA0BE0E8FEEF16161706E807F90712
:10589000C0F012161306E407F50798F0621B730BAD
:1058A000840B950B39F40A2661F0232B242B252B2E
:1058B00021F408950A2609F4A140A6958FEF811DD1
:1058C000811D089597F99F6780E870E060E0089572
:1058D0009FEF80EC0895DF93CF931F930F93FF9278
:1058E000EF92DF927B018C01689406C0DA2EEF0103
:1058F0000E94682DFE01E894A5912591359145916E
:105900005591A6F3EF010E94CC2AFE019701A80150
:10591000DA9469F7DF90EF90FF900F911F91CF918C
:10592000DF91089500240A94161617061806090632
:10593000089500240A941216130614060506089505
:10594000092E0394000C11F4882352F0BB0F40F48D
:10595000BF2B11F460FF04C06F5F7F4F8F4F9F4FCD
:10596000089557FD9058440F551F59F05F3F71F04F
:105970004795880F97FB991F61F09F3F79F08795B6
:105980000895121613061406551FF2CF4695F1DF3F
:1059900008C0161617061806991FF1CF86957105CF
:1059A000610508940895E894BB2766277727CB0103
:1059B00097F908950E943E2C08F48FEF08959B01FB
:1059C000AC0160E070E080E89FE30C94262B0C941F
:1059D000622C0C94CA2D0E94B92CD8F39923C9F3D8
:1059E000940F511DA3F39150504094F059F0882327
:1059F00032F0660F771F881F91505040C1F79E3FCD
:105A000051052CF7880F911D9695879597F9089564
:105A10005F3FACF0983E9CF0BB27869577956795E5
:105A2000B79508F4B1609395C1F7BB0F58F711F41F
:105A300060FFE8CF6F5F7F4F8F4F9F4FE3CF0C9496
:105A4000D42CFA01DC01AA0FBB1F9B01AC01BF578C
:105A500028F4222733274427507820C0B75190F4E8
:105A6000AB2F0024469537952795011CA395D2F3BB
:105A7000002071F0220F331F441FB395DAF30ED0CC
:105A80000C94B42A61307105A0E88A07B94630F455
:105A90009B01AC016627772788279078309621F004
:105AA000208331834283538308950E94682D0C9490
:105AB000A02C0E94922C38F00E94992C20F0952363
:105AC00011F00C94622C0C94682C11240C94D42C9E
:105AD0000E94B12C70F3959FC1F3950F50E0551FB4
